{
  "transactions": [
    {
      "hash": "0x99c1259d30a0612b76adc42682ce35e04cd7d5cddac8193f72ad4d0ee631138d",
      "transactionType": "CALL",
      "contractName": null,
      "contractAddress": "0x779877A7B0D9E8603169DdbD7836e478b4624789",
      "function": "transferAndCall(address,uint256,bytes)",
      "arguments": [
        "0x8103B0A8A00be2DDC778e6e7eaa21791Cd364625",
        "3000000000000000000",
        "0x00000000000000000000000000000000000000000000000000000000000028cf"
      ],
      "transaction": {
        "type": "0x02",
        "from": "0x752c57540aba45141f139566e0cc27471e3b9d0c",
        "to": "0x779877a7b0d9e8603169ddbd7836e478b4624789",
        "gas": "0x13fbe",
        "value": "0x0",
        "data": "0x4000aea00000000000000000000000008103b0a8a00be2ddc778e6e7eaa21791cd36462500000000000000000000000000000000000000000000000029a2241af62c00000000000000000000000000000000000000000000000000000000000000000060000000000000000000000000000000000000000000000000000000000000002000000000000000000000000000000000000000000000000000000000000028cf",
        "nonce": "0xf",
        "accessList": []
      },
      "additionalContracts": [],
      "isFixedGasLimit": false
    }
  ],
  "receipts": [
    {
      "transactionHash": "0x99c1259d30a0612b76adc42682ce35e04cd7d5cddac8193f72ad4d0ee631138d",
      "transactionIndex": "0xc",
      "blockHash": "0x8d2e72c7ce54fa68884394b894b5ab4624076a298709fa204487fef30ec5de72",
      "blockNumber": "0x5a49e4",
      "from": "0x752C57540aBa45141f139566E0CC27471e3B9d0C",
      "to": "0x779877A7B0D9E8603169DdbD7836e478b4624789",
      "cumulativeGasUsed": "0x1c4f7e",
      "gasUsed": "0xe77e",
      "contractAddress": null,
      "logs": [
        {
          "address": "0x779877A7B0D9E8603169DdbD7836e478b4624789",
          "topics": [
            "0xddf252ad1be2c89b69c2b068fc378daa952ba7f163c4a11628f55a4df523b3ef",
            "0x000000000000000000000000752c57540aba45141f139566e0cc27471e3b9d0c",
            "0x0000000000000000000000008103b0a8a00be2ddc778e6e7eaa21791cd364625"
          ],
          "data": "0x00000000000000000000000000000000000000000000000029a2241af62c0000",
          "blockHash": "0x8d2e72c7ce54fa68884394b894b5ab4624076a298709fa204487fef30ec5de72",
          "blockNumber": "0x5a49e4",
          "transactionHash": "0x99c1259d30a0612b76adc42682ce35e04cd7d5cddac8193f72ad4d0ee631138d",
          "transactionIndex": "0xc",
          "logIndex": "0x1a",
          "removed": false
        },
        {
          "address": "0x779877A7B0D9E8603169DdbD7836e478b4624789",
          "topics": [
            "0xe19260aff97b920c7df27010903aeb9c8d2be5d310a2c67824cf3f15396e4c16",
            "0x000000000000000000000000752c57540aba45141f139566e0cc27471e3b9d0c",
            "0x0000000000000000000000008103b0a8a00be2ddc778e6e7eaa21791cd364625"
          ],
          "data": "0x00000000000000000000000000000000000000000000000029a2241af62c00000000000000000000000000000000000000000000000000000000000000000040000000000000000000000000000000000000000000000000000000000000002000000000000000000000000000000000000000000000000000000000000028cf",
          "blockHash": "0x8d2e72c7ce54fa68884394b894b5ab4624076a298709fa204487fef30ec5de72",
          "blockNumber": "0x5a49e4",
          "transactionHash": "0x99c1259d30a0612b76adc42682ce35e04cd7d5cddac8193f72ad4d0ee631138d",
          "transactionIndex": "0xc",
          "logIndex": "0x1b",
          "removed": false
        },
        {
          "address": "0x8103B0A8A00be2DDC778e6e7eaa21791Cd364625",
          "topics": [
            "0xd39ec07f4e209f627a4c427971473820dc129761ba28de8906bd56f57101d4f8",
            "0x00000000000000000000000000000000000000000000000000000000000028cf"
          ],
          "data": "0x00000000000000000000000000000000000000000000000239631b23697194ff00000000000000000000000000000000000000000000000263053f3e5f9d94ff",
          "blockHash": "0x8d2e72c7ce54fa68884394b894b5ab4624076a298709fa204487fef30ec5de72",
          "blockNumber": "0x5a49e4",
          "transactionHash": "0x99c1259d30a0612b76adc42682ce35e04cd7d5cddac8193f72ad4d0ee631138d",
          "transactionIndex": "0xc",
          "logIndex": "0x1c",
          "removed": false
        }
      ],
      "status": "0x1",
      "logsBloom": "0x0000001400000000000000000000000000000000000000020000000002000000200000000000800000000000000010000000000000000000000000000000000000000010000000000002000800000000000008000000000000002000000000000000000000000000000000000000000000000000400000000000001000000000000000000c000020000000000000800010000020000000000000000000000000000000000000000000400000000000000000000000000000000400000000000000000002000000000000000000000000000000000000000100000000000000000000000000000000000000000000000000000000000000000000000000000000",
      "type": "0x2",
      "effectiveGasPrice": "0x486623c77"
    }
  ],
  "libraries": [],
  "pending": [],
  "returns": {},
  "timestamp": 1715895375,
  "chain": 11155111,
  "multi": false,
  "commit": "113d3b0"
}