{
  "transactions": [
    {
      "hash": "0x510cfd8dc86f9868b9ced8a76008ba9db312a2cf701d792439325c4cf302432e",
      "transactionType": "CALL",
      "contractName": null,
      "contractAddress": "0x779877A7B0D9E8603169DdbD7836e478b4624789",
      "function": "transferAndCall(address,uint256,bytes)",
      "arguments": [
        "0x8103B0A8A00be2DDC778e6e7eaa21791Cd364625",
        "3000000000000000000",
        "0x00000000000000000000000000000000000000000000000000000000000028cf"
      ],
      "transaction": {
        "type": "0x02",
        "from": "0x752c57540aba45141f139566e0cc27471e3b9d0c",
        "to": "0x779877a7b0d9e8603169ddbd7836e478b4624789",
        "gas": "0x13fbe",
        "value": "0x0",
        "data": "0x4000aea00000000000000000000000008103b0a8a00be2ddc778e6e7eaa21791cd36462500000000000000000000000000000000000000000000000029a2241af62c00000000000000000000000000000000000000000000000000000000000000000060000000000000000000000000000000000000000000000000000000000000002000000000000000000000000000000000000000000000000000000000000028cf",
        "nonce": "0xb",
        "accessList": []
      },
      "additionalContracts": [],
      "isFixedGasLimit": false
    }
  ],
  "receipts": [],
  "libraries": [],
  "pending": [
    "0x510cfd8dc86f9868b9ced8a76008ba9db312a2cf701d792439325c4cf302432e"
  ],
  "returns": {},
  "timestamp": 1711228401,
  "chain": 11155111,
  "multi": false,
  "commit": "113d3b0"
}