{
  "transactions": [
    {
      "hash": "0xfcc6ae881400a85a2b3002d67b6ad087cb96207e5ca081132ef04e4fe7ec6008",
      "transactionType": "CALL",
      "contractName": null,
      "contractAddress": "0x779877A7B0D9E8603169DdbD7836e478b4624789",
      "function": "transferAndCall(address,uint256,bytes)",
      "arguments": [
        "0x8103B0A8A00be2DDC778e6e7eaa21791Cd364625",
        "3000000000000000000",
        "0x0000000000000000000000000000000000000000000000000000000000002639"
      ],
      "transaction": {
        "type": "0x02",
        "from": "0x752c57540aba45141f139566e0cc27471e3b9d0c",
        "to": "0x779877a7b0d9e8603169ddbd7836e478b4624789",
        "gas": "0x13fbe",
        "value": "0x0",
        "data": "0x4000aea00000000000000000000000008103b0a8a00be2ddc778e6e7eaa21791cd36462500000000000000000000000000000000000000000000000029a2241af62c0000000000000000000000000000000000000000000000000000000000000000006000000000000000000000000000000000000000000000000000000000000000200000000000000000000000000000000000000000000000000000000000002639",
        "nonce": "0x10",
        "accessList": []
      },
      "additionalContracts": [],
      "isFixedGasLimit": false
    }
  ],
  "receipts": [
    {
      "transactionHash": "0xfcc6ae881400a85a2b3002d67b6ad087cb96207e5ca081132ef04e4fe7ec6008",
      "transactionIndex": "0x12",
      "blockHash": "0x055a2b52f03e321bde9c4e9fd8c22477ddfb9caaf3499aa87e46c09d6265ab78",
      "blockNumber": "0x5a49fc",
      "from": "0x752C57540aBa45141f139566E0CC27471e3B9d0C",
      "to": "0x779877A7B0D9E8603169DdbD7836e478b4624789",
      "cumulativeGasUsed": "0x2309f1",
      "gasUsed": "0xe77e",
      "contractAddress": null,
      "logs": [
        {
          "address": "0x779877A7B0D9E8603169DdbD7836e478b4624789",
          "topics": [
            "0xddf252ad1be2c89b69c2b068fc378daa952ba7f163c4a11628f55a4df523b3ef",
            "0x000000000000000000000000752c57540aba45141f139566e0cc27471e3b9d0c",
            "0x0000000000000000000000008103b0a8a00be2ddc778e6e7eaa21791cd364625"
          ],
          "data": "0x00000000000000000000000000000000000000000000000029a2241af62c0000",
          "blockHash": "0x055a2b52f03e321bde9c4e9fd8c22477ddfb9caaf3499aa87e46c09d6265ab78",
          "blockNumber": "0x5a49fc",
          "transactionHash": "0xfcc6ae881400a85a2b3002d67b6ad087cb96207e5ca081132ef04e4fe7ec6008",
          "transactionIndex": "0x12",
          "logIndex": "0x2d",
          "removed": false
        },
        {
          "address": "0x779877A7B0D9E8603169DdbD7836e478b4624789",
          "topics": [
            "0xe19260aff97b920c7df27010903aeb9c8d2be5d310a2c67824cf3f15396e4c16",
            "0x000000000000000000000000752c57540aba45141f139566e0cc27471e3b9d0c",
            "0x0000000000000000000000008103b0a8a00be2ddc778e6e7eaa21791cd364625"
          ],
          "data": "0x00000000000000000000000000000000000000000000000029a2241af62c0000000000000000000000000000000000000000000000000000000000000000004000000000000000000000000000000000000000000000000000000000000000200000000000000000000000000000000000000000000000000000000000002639",
          "blockHash": "0x055a2b52f03e321bde9c4e9fd8c22477ddfb9caaf3499aa87e46c09d6265ab78",
          "blockNumber": "0x5a49fc",
          "transactionHash": "0xfcc6ae881400a85a2b3002d67b6ad087cb96207e5ca081132ef04e4fe7ec6008",
          "transactionIndex": "0x12",
          "logIndex": "0x2e",
          "removed": false
        },
        {
          "address": "0x8103B0A8A00be2DDC778e6e7eaa21791Cd364625",
          "topics": [
            "0xd39ec07f4e209f627a4c427971473820dc129761ba28de8906bd56f57101d4f8",
            "0x0000000000000000000000000000000000000000000000000000000000002639"
          ],
          "data": "0x00000000000000000000000000000000000000000000000053444835ec5800000000000000000000000000000000000000000000000000007ce66c50e2840000",
          "blockHash": "0x055a2b52f03e321bde9c4e9fd8c22477ddfb9caaf3499aa87e46c09d6265ab78",
          "blockNumber": "0x5a49fc",
          "transactionHash": "0xfcc6ae881400a85a2b3002d67b6ad087cb96207e5ca081132ef04e4fe7ec6008",
          "transactionIndex": "0x12",
          "logIndex": "0x2f",
          "removed": false
        }
      ],
      "status": "0x1",
      "logsBloom": "0x0000001400002000000000100000000000000000000000020000000002000000000000000000800000000000000000000000000000000000000000000000000000000000000000000002000800000000000008000000000000002000000000000000000000000000000000000000000000000000400000000000005000000000000000000c000020000000000000800010000020000000000000000000000000000000000000000000400000000000000000000000000000000400000000000000000002000000000000000000000000000000000000000100000000000000000000000000000000000000000000000000000000000000000000000000000000",
      "type": "0x2",
      "effectiveGasPrice": "0x4b4e53f67"
    }
  ],
  "libraries": [],
  "pending": [],
  "returns": {},
  "timestamp": 1715895666,
  "chain": 11155111,
  "multi": false,
  "commit": "113d3b0"
}