{
  "transactions": [
    {
      "hash": "0x4e4f4ded7fbd4cd46bdbbbcab731df73360274c61cc52d46e528adf710e3ff01",
      "transactionType": "CALL",
      "contractName": null,
      "contractAddress": "0x779877A7B0D9E8603169DdbD7836e478b4624789",
      "function": "transferAndCall(address,uint256,bytes)",
      "arguments": [
        "0x8103B0A8A00be2DDC778e6e7eaa21791Cd364625",
        "3000000000000000000",
        "0x0000000000000000000000000000000000000000000000000000000000002639"
      ],
      "transaction": {
        "type": "0x02",
        "from": "0x752c57540aba45141f139566e0cc27471e3b9d0c",
        "to": "0x779877a7b0d9e8603169ddbd7836e478b4624789",
        "gas": "0x13fbe",
        "value": "0x0",
        "data": "0x4000aea00000000000000000000000008103b0a8a00be2ddc778e6e7eaa21791cd36462500000000000000000000000000000000000000000000000029a2241af62c0000000000000000000000000000000000000000000000000000000000000000006000000000000000000000000000000000000000000000000000000000000000200000000000000000000000000000000000000000000000000000000000002639",
        "nonce": "0x12",
        "accessList": []
      },
      "additionalContracts": [],
      "isFixedGasLimit": false
    }
  ],
  "receipts": [],
  "libraries": [],
  "pending": [
    "0x4e4f4ded7fbd4cd46bdbbbcab731df73360274c61cc52d46e528adf710e3ff01"
  ],
  "returns": {},
  "timestamp": 1716671739,
  "chain": 11155111,
  "multi": false,
  "commit": "6b2145a"
}